{
  "_format": "hh-sol-artifact-1",
  "contractName": "TaskManager",
  "sourceName": "contracts/TaskManager.sol",
  "abi": [
    {
      "inputs": [
        {
          "internalType": "address",
          "name": "_platformWallet",
          "type": "address"
        }
      ],
      "stateMutability": "nonpayable",
      "type": "constructor"
    },
    {
      "anonymous": false,
      "inputs": [
        {
          "indexed": true,
          "internalType": "address",
          "name": "previousOwner",
          "type": "address"
        },
        {
          "indexed": true,
          "internalType": "address",
          "name": "newOwner",
          "type": "address"
        }
      ],
      "name": "OwnershipTransferred",
      "type": "event"
    },
    {
      "anonymous": false,
      "inputs": [
        {
          "indexed": true,
          "internalType": "uint256",
          "name": "taskId",
          "type": "uint256"
        },
        {
          "indexed": true,
          "internalType": "address",
          "name": "doer",
          "type": "address"
        },
        {
          "indexed": false,
          "internalType": "uint256",
          "name": "amount",
          "type": "uint256"
        }
      ],
      "name": "PaymentReleased",
      "type": "event"
    },
    {
      "anonymous": false,
      "inputs": [
        {
          "indexed": true,
          "internalType": "uint256",
          "name": "taskId",
          "type": "uint256"
        },
        {
          "indexed": false,
          "internalType": "uint256",
          "name": "amount",
          "type": "uint256"
        }
      ],
      "name": "PlatformFeeCollected",
      "type": "event"
    },
    {
      "anonymous": false,
      "inputs": [
        {
          "indexed": true,
          "internalType": "uint256",
          "name": "taskId",
          "type": "uint256"
        },
        {
          "indexed": true,
          "internalType": "address",
          "name": "doer",
          "type": "address"
        }
      ],
      "name": "TaskAssigned",
      "type": "event"
    },
    {
      "anonymous": false,
      "inputs": [
        {
          "indexed": true,
          "internalType": "uint256",
          "name": "taskId",
          "type": "uint256"
        },
        {
          "indexed": false,
          "internalType": "string",
          "name": "submissionUrl",
          "type": "string"
        }
      ],
      "name": "TaskCompleted",
      "type": "event"
    },
    {
      "anonymous": false,
      "inputs": [
        {
          "indexed": true,
          "internalType": "uint256",
          "name": "taskId",
          "type": "uint256"
        },
        {
          "indexed": true,
          "internalType": "address",
          "name": "poster",
          "type": "address"
        },
        {
          "indexed": false,
          "internalType": "uint256",
          "name": "amount",
          "type": "uint256"
        }
      ],
      "name": "TaskCreated",
      "type": "event"
    },
    {
      "inputs": [
        {
          "internalType": "uint256",
          "name": "_taskId",
          "type": "uint256"
        }
      ],
      "name": "assignTask",
      "outputs": [],
      "stateMutability": "nonpayable",
      "type": "function"
    },
    {
      "inputs": [
        {
          "internalType": "uint256",
          "name": "_taskId",
          "type": "uint256"
        },
        {
          "internalType": "string",
          "name": "_submissionUrl",
          "type": "string"
        }
      ],
      "name": "completeTask",
      "outputs": [],
      "stateMutability": "nonpayable",
      "type": "function"
    },
    {
      "inputs": [
        {
          "internalType": "string",
          "name": "_description",
          "type": "string"
        }
      ],
      "name": "createTask",
      "outputs": [],
      "stateMutability": "payable",
      "type": "function"
    },
    {
      "inputs": [],
      "name": "getContractBalance",
      "outputs": [
        {
          "internalType": "uint256",
          "name": "",
          "type": "uint256"
        }
      ],
      "stateMutability": "view",
      "type": "function"
    },
    {
      "inputs": [
        {
          "internalType": "uint256",
          "name": "_taskId",
          "type": "uint256"
        }
      ],
      "name": "getTask",
      "outputs": [
        {
          "internalType": "uint256",
          "name": "id",
          "type": "uint256"
        },
        {
          "internalType": "address",
          "name": "poster",
          "type": "address"
        },
        {
          "internalType": "address",
          "name": "doer",
          "type": "address"
        },
        {
          "internalType": "uint256",
          "name": "amount",
          "type": "uint256"
        },
        {
          "internalType": "string",
          "name": "description",
          "type": "string"
        },
        {
          "internalType": "bool",
          "name": "isCompleted",
          "type": "bool"
        },
        {
          "internalType": "bool",
          "name": "isPaid",
          "type": "bool"
        },
        {
          "internalType": "uint256",
          "name": "createdAt",
          "type": "uint256"
        },
        {
          "internalType": "string",
          "name": "submissionUrl",
          "type": "string"
        }
      ],
      "stateMutability": "view",
      "type": "function"
    },
    {
      "inputs": [],
      "name": "owner",
      "outputs": [
        {
          "internalType": "address",
          "name": "",
          "type": "address"
        }
      ],
      "stateMutability": "view",
      "type": "function"
    },
    {
      "inputs": [],
      "name": "platformFee",
      "outputs": [
        {
          "internalType": "uint256",
          "name": "",
          "type": "uint256"
        }
      ],
      "stateMutability": "view",
      "type": "function"
    },
    {
      "inputs": [],
      "name": "platformWallet",
      "outputs": [
        {
          "internalType": "address",
          "name": "",
          "type": "address"
        }
      ],
      "stateMutability": "view",
      "type": "function"
    },
    {
      "inputs": [
        {
          "internalType": "uint256",
          "name": "_taskId",
          "type": "uint256"
        }
      ],
      "name": "releasePayment",
      "outputs": [],
      "stateMutability": "nonpayable",
      "type": "function"
    },
    {
      "inputs": [],
      "name": "renounceOwnership",
      "outputs": [],
      "stateMutability": "nonpayable",
      "type": "function"
    },
    {
      "inputs": [
        {
          "internalType": "uint256",
          "name": "_newFee",
          "type": "uint256"
        }
      ],
      "name": "setPlatformFee",
      "outputs": [],
      "stateMutability": "nonpayable",
      "type": "function"
    },
    {
      "inputs": [
        {
          "internalType": "address",
          "name": "_newWallet",
          "type": "address"
        }
      ],
      "name": "setPlatformWallet",
      "outputs": [],
      "stateMutability": "nonpayable",
      "type": "function"
    },
    {
      "inputs": [],
      "name": "taskCount",
      "outputs": [
        {
          "internalType": "uint256",
          "name": "",
          "type": "uint256"
        }
      ],
      "stateMutability": "view",
      "type": "function"
    },
    {
      "inputs": [
        {
          "internalType": "uint256",
          "name": "",
          "type": "uint256"
        }
      ],
      "name": "tasks",
      "outputs": [
        {
          "internalType": "uint256",
          "name": "id",
          "type": "uint256"
        },
        {
          "internalType": "address",
          "name": "poster",
          "type": "address"
        },
        {
          "internalType": "address",
          "name": "doer",
          "type": "address"
        },
        {
          "internalType": "uint256",
          "name": "amount",
          "type": "uint256"
        },
        {
          "internalType": "string",
          "name": "description",
          "type": "string"
        },
        {
          "internalType": "bool",
          "name": "isCompleted",
          "type": "bool"
        },
        {
          "internalType": "bool",
          "name": "isPaid",
          "type": "bool"
        },
        {
          "internalType": "uint256",
          "name": "createdAt",
          "type": "uint256"
        },
        {
          "internalType": "string",
          "name": "submissionUrl",
          "type": "string"
        }
      ],
      "stateMutability": "view",
      "type": "function"
    },
    {
      "inputs": [
        {
          "internalType": "address",
          "name": "newOwner",
          "type": "address"
        }
      ],
      "name": "transferOwnership",
      "outputs": [],
      "stateMutability": "nonpayable",
      "type": "function"
    }
  ],
  "bytecode": "0x608060405260fa6002553480156200001657600080fd5b50604051620027353803806200273583398181016040528101906200003c9190620001e4565b60016000819055506200006462000058620000ac60201b60201c565b620000b460201b60201c565b80600560006101000a81548173ffffffffffffffffffffffffffffffffffffffff021916908373ffffffffffffffffffffffffffffffffffffffff1602179055505062000216565b600033905090565b6000600160009054906101000a900473ffffffffffffffffffffffffffffffffffffffff16905081600160006101000a81548173ffffffffffffffffffffffffffffffffffffffff021916908373ffffffffffffffffffffffffffffffffffffffff1602179055508173ffffffffffffffffffffffffffffffffffffffff168173ffffffffffffffffffffffffffffffffffffffff167f8be0079c531659141344cd1fd0a4f28419497f9722a3daafe3b4186f6b6457e060405160405180910390a35050565b600080fd5b600073ffffffffffffffffffffffffffffffffffffffff82169050919050565b6000620001ac826200017f565b9050919050565b620001be816200019f565b8114620001ca57600080fd5b50565b600081519050620001de81620001b3565b92915050565b600060208284031215620001fd57620001fc6200017a565b5b60006200020d84828501620001cd565b91505092915050565b61250f80620002266000396000f3fe6080604052600436106100e85760003560e01c80638831e9cf1161008a578063b6cb58a511610059578063b6cb58a5146102cf578063b8573185146102fa578063f2fde38b14610323578063fa2af9da1461034c576100e8565b80638831e9cf1461020d57806388685cd9146102365780638d9776721461025f5780638da5cb5b146102a4576100e8565b806326232a2e116100c657806326232a2e146101775780636f9fb98a146101a2578063715018a6146101cd57806374aaa760146101e4576100e8565b8063111002aa146100ed57806312e8e2c3146101095780631d65e77e14610132575b600080fd5b61010760048036038101906101029190611644565b610377565b005b34801561011557600080fd5b50610130600480360381019061012b91906116c3565b6105db565b005b34801561013e57600080fd5b50610159600480360381019061015491906116c3565b610632565b60405161016e999897969594939291906117da565b60405180910390f35b34801561018357600080fd5b5061018c610815565b6040516101999190611875565b60405180910390f35b3480156101ae57600080fd5b506101b761081b565b6040516101c49190611875565b60405180910390f35b3480156101d957600080fd5b506101e2610823565b005b3480156101f057600080fd5b5061020b60048036038101906102069190611890565b610837565b005b34801561021957600080fd5b50610234600480360381019061022f9190611918565b61099e565b005b34801561024257600080fd5b5061025d600480360381019061025891906116c3565b610a59565b005b34801561026b57600080fd5b50610286600480360381019061028191906116c3565b610e5a565b60405161029b999897969594939291906117da565b60405180910390f35b3480156102b057600080fd5b506102b9611012565b6040516102c69190611945565b60405180910390f35b3480156102db57600080fd5b506102e461103c565b6040516102f19190611875565b60405180910390f35b34801561030657600080fd5b50610321600480360381019061031c91906116c3565b611042565b005b34801561032f57600080fd5b5061034a60048036038101906103459190611918565b61129c565b005b34801561035857600080fd5b5061036161131f565b60405161036e9190611945565b60405180910390f35b600034116103ba576040517f08c379a00000000000000000000000000000000000000000000000000000000081526004016103b1906119ac565b60405180910390fd5b600460008154809291906103cd906119fb565b919050555060405180610120016040528060045481526020013373ffffffffffffffffffffffffffffffffffffffff168152602001600073ffffffffffffffffffffffffffffffffffffffff168152602001348152602001828152602001600015158152602001600015158152602001428152602001604051806020016040528060008152508152506003600060045481526020019081526020016000206000820151816000015560208201518160010160006101000a81548173ffffffffffffffffffffffffffffffffffffffff021916908373ffffffffffffffffffffffffffffffffffffffff16021790555060408201518160020160006101000a81548173ffffffffffffffffffffffffffffffffffffffff021916908373ffffffffffffffffffffffffffffffffffffffff1602179055506060820151816003015560808201518160040190816105229190611c4f565b5060a08201518160050160006101000a81548160ff02191690831515021790555060c08201518160050160016101000a81548160ff02191690831515021790555060e082015181600601556101008201518160070190816105839190611c4f565b509050503373ffffffffffffffffffffffffffffffffffffffff166004547f6cf53aa7292e664152c2ea948c3b3c95d4b05c36daeb2626d0293473c4a4a153346040516105d09190611875565b60405180910390a350565b6105e3611345565b6103e8811115610628576040517f08c379a000000000000000000000000000000000000000000000000000000000815260040161061f90611d6d565b60405180910390fd5b8060028190555050565b6000806000806060600080600060606000600360008c8152602001908152602001600020905080600001548160010160009054906101000a900473ffffffffffffffffffffffffffffffffffffffff168260020160009054906101000a900473ffffffffffffffffffffffffffffffffffffffff168360030154846004018560050160009054906101000a900460ff168660050160019054906101000a900460ff168760060154886007018480546106e990611a72565b80601f016020809104026020016040519081016040528092919081815260200182805461071590611a72565b80156107625780601f1061073757610100808354040283529160200191610762565b820191906000526020600020905b81548152906001019060200180831161074557829003601f168201915b5050505050945080805461077590611a72565b80601f01602080910402602001604051908101604052809291908181526020018280546107a190611a72565b80156107ee5780601f106107c3576101008083540402835291602001916107ee565b820191906000526020600020905b8154815290600101906020018083116107d157829003601f168201915b50505050509050995099509950995099509950995099509950509193959799909294969850565b60025481565b600047905090565b61082b611345565b61083560006113c3565b565b60006003600084815260200190815260200160002090503373ffffffffffffffffffffffffffffffffffffffff168160020160009054906101000a900473ffffffffffffffffffffffffffffffffffffffff1673ffffffffffffffffffffffffffffffffffffffff16146108e0576040517f08c379a00000000000000000000000000000000000000000000000000000000081526004016108d790611dd9565b60405180910390fd5b8060050160009054906101000a900460ff1615610932576040517f08c379a000000000000000000000000000000000000000000000000000000000815260040161092990611e45565b60405180910390fd5b60018160050160006101000a81548160ff021916908315150217905550818160070190816109609190611c4f565b50827f7e6ffc29fe63759579d96a0457a8f2e08339aca345bd469f59dc2e61f82a5aeb836040516109919190611e65565b60405180910390a2505050565b6109a6611345565b600073ffffffffffffffffffffffffffffffffffffffff168173ffffffffffffffffffffffffffffffffffffffff1603610a15576040517f08c379a0000000000000000000000000000000000000000000000000000000008152600401610a0c90611ed3565b60405180910390fd5b80600560006101000a81548173ffffffffffffffffffffffffffffffffffffffff021916908373ffffffffffffffffffffffffffffffffffffffff16021790555050565b610a61611489565b60006003600083815260200190815260200160002090503373ffffffffffffffffffffffffffffffffffffffff168160010160009054906101000a900473ffffffffffffffffffffffffffffffffffffffff1673ffffffffffffffffffffffffffffffffffffffff1614610b0a576040517f08c379a0000000000000000000000000000000000000000000000000000000008152600401610b0190611f3f565b60405180910390fd5b8060050160009054906101000a900460ff16610b5b576040517f08c379a0000000000000000000000000000000000000000000000000000000008152600401610b5290611fab565b60405180910390fd5b8060050160019054906101000a900460ff1615610bad576040517f08c379a0000000000000000000000000000000000000000000000000000000008152600401610ba490612017565b60405180910390fd5b60018160050160016101000a81548160ff02191690831515021790555060006127106002548360030154610be19190612037565b610beb91906120a8565b90506000818360030154610bff91906120d9565b90506000600560009054906101000a900473ffffffffffffffffffffffffffffffffffffffff1673ffffffffffffffffffffffffffffffffffffffff1683604051610c499061213e565b60006040518083038185875af1925050503d8060008114610c86576040519150601f19603f3d011682016040523d82523d6000602084013e610c8b565b606091505b5050905080610ccf576040517f08c379a0000000000000000000000000000000000000000000000000000000008152600401610cc69061219f565b60405180910390fd5b60008460020160009054906101000a900473ffffffffffffffffffffffffffffffffffffffff1673ffffffffffffffffffffffffffffffffffffffff1683604051610d199061213e565b60006040518083038185875af1925050503d8060008114610d56576040519150601f19603f3d011682016040523d82523d6000602084013e610d5b565b606091505b5050905080610d9f576040517f08c379a0000000000000000000000000000000000000000000000000000000008152600401610d969061220b565b60405180910390fd5b857fa8341f104131cae3e9965326a01662a1e0dc3dc60c8d099fefa4578ef8f6f9ae85604051610dcf9190611875565b60405180910390a28460020160009054906101000a900473ffffffffffffffffffffffffffffffffffffffff1673ffffffffffffffffffffffffffffffffffffffff16867f21d71db5be59bb9fa133895586b7404307dd33fb93b16db09dc6f1d9d7d231b085604051610e429190611875565b60405180910390a35050505050610e576114d8565b50565b60036020528060005260406000206000915090508060000154908060010160009054906101000a900473ffffffffffffffffffffffffffffffffffffffff16908060020160009054906101000a900473ffffffffffffffffffffffffffffffffffffffff1690806003015490806004018054610ed590611a72565b80601f0160208091040260200160405190810160405280929190818152602001828054610f0190611a72565b8015610f4e5780601f10610f2357610100808354040283529160200191610f4e565b820191906000526020600020905b815481529060010190602001808311610f3157829003601f168201915b5050505050908060050160009054906101000a900460ff16908060050160019054906101000a900460ff1690806006015490806007018054610f8f90611a72565b80601f0160208091040260200160405190810160405280929190818152602001828054610fbb90611a72565b80156110085780601f10610fdd57610100808354040283529160200191611008565b820191906000526020600020905b815481529060010190602001808311610feb57829003601f168201915b5050505050905089565b6000600160009054906101000a900473ffffffffffffffffffffffffffffffffffffffff16905090565b60045481565b6000600360008381526020019081526020016000209050600073ffffffffffffffffffffffffffffffffffffffff168160010160009054906101000a900473ffffffffffffffffffffffffffffffffffffffff1673ffffffffffffffffffffffffffffffffffffffff16036110ec576040517f08c379a00000000000000000000000000000000000000000000000000000000081526004016110e390612277565b60405180910390fd5b600073ffffffffffffffffffffffffffffffffffffffff168160020160009054906101000a900473ffffffffffffffffffffffffffffffffffffffff1673ffffffffffffffffffffffffffffffffffffffff161461117f576040517f08c379a0000000000000000000000000000000000000000000000000000000008152600401611176906122e3565b60405180910390fd5b8060010160009054906101000a900473ffffffffffffffffffffffffffffffffffffffff1673ffffffffffffffffffffffffffffffffffffffff163373ffffffffffffffffffffffffffffffffffffffff1603611211576040517f08c379a00000000000000000000000000000000000000000000000000000000081526004016112089061234f565b60405180910390fd5b338160020160006101000a81548173ffffffffffffffffffffffffffffffffffffffff021916908373ffffffffffffffffffffffffffffffffffffffff1602179055503373ffffffffffffffffffffffffffffffffffffffff16827f52476d55ecef5cf13caa64038f297fe6bbf865d9584a98b8722a15a6d5db128f60405160405180910390a35050565b6112a4611345565b600073ffffffffffffffffffffffffffffffffffffffff168173ffffffffffffffffffffffffffffffffffffffff1603611313576040517f08c379a000000000000000000000000000000000000000000000000000000000815260040161130a906123e1565b60405180910390fd5b61131c816113c3565b50565b600560009054906101000a900473ffffffffffffffffffffffffffffffffffffffff1681565b61134d6114e2565b73ffffffffffffffffffffffffffffffffffffffff1661136b611012565b73ffffffffffffffffffffffffffffffffffffffff16146113c1576040517f08c379a00000000000000000000000000000000000000000000000000000000081526004016113b89061244d565b60405180910390fd5b565b6000600160009054906101000a900473ffffffffffffffffffffffffffffffffffffffff16905081600160006101000a81548173ffffffffffffffffffffffffffffffffffffffff021916908373ffffffffffffffffffffffffffffffffffffffff1602179055508173ffffffffffffffffffffffffffffffffffffffff168173ffffffffffffffffffffffffffffffffffffffff167f8be0079c531659141344cd1fd0a4f28419497f9722a3daafe3b4186f6b6457e060405160405180910390a35050565b6002600054036114ce576040517f08c379a00000000000000000000000000000000000000000000000000000000081526004016114c5906124b9565b60405180910390fd5b6002600081905550565b6001600081905550565b600033905090565b6000604051905090565b600080fd5b600080fd5b600080fd5b600080fd5b6000601f19601f8301169050919050565b7f4e487b7100000000000000000000000000000000000000000000000000000000600052604160045260246000fd5b61155182611508565b810181811067ffffffffffffffff821117156115705761156f611519565b5b80604052505050565b60006115836114ea565b905061158f8282611548565b919050565b600067ffffffffffffffff8211156115af576115ae611519565b5b6115b882611508565b9050602081019050919050565b82818337600083830152505050565b60006115e76115e284611594565b611579565b90508281526020810184848401111561160357611602611503565b5b61160e8482856115c5565b509392505050565b600082601f83011261162b5761162a6114fe565b5b813561163b8482602086016115d4565b91505092915050565b60006020828403121561165a576116596114f4565b5b600082013567ffffffffffffffff811115611678576116776114f9565b5b61168484828501611616565b91505092915050565b6000819050919050565b6116a08161168d565b81146116ab57600080fd5b50565b6000813590506116bd81611697565b92915050565b6000602082840312156116d9576116d86114f4565b5b60006116e7848285016116ae565b91505092915050565b6116f98161168d565b82525050565b600073ffffffffffffffffffffffffffffffffffffffff82169050919050565b600061172a826116ff565b9050919050565b61173a8161171f565b82525050565b600081519050919050565b600082825260208201905092915050565b60005b8381101561177a57808201518184015260208101905061175f565b60008484015250505050565b600061179182611740565b61179b818561174b565b93506117ab81856020860161175c565b6117b481611508565b840191505092915050565b60008115159050919050565b6117d4816117bf565b82525050565b6000610120820190506117f0600083018c6116f0565b6117fd602083018b611731565b61180a604083018a611731565b61181760608301896116f0565b81810360808301526118298188611786565b905061183860a08301876117cb565b61184560c08301866117cb565b61185260e08301856116f0565b8181036101008301526118658184611786565b90509a9950505050505050505050565b600060208201905061188a60008301846116f0565b92915050565b600080604083850312156118a7576118a66114f4565b5b60006118b5858286016116ae565b925050602083013567ffffffffffffffff8111156118d6576118d56114f9565b5b6118e285828601611616565b9150509250929050565b6118f58161171f565b811461190057600080fd5b50565b600081359050611912816118ec565b92915050565b60006020828403121561192e5761192d6114f4565b5b600061193c84828501611903565b91505092915050565b600060208201905061195a6000830184611731565b92915050565b7f416d6f756e74206d7573742062652067726561746572207468616e2030000000600082015250565b6000611996601d8361174b565b91506119a182611960565b602082019050919050565b600060208201905081810360008301526119c581611989565b9050919050565b7f4e487b7100000000000000000000000000000000000000000000000000000000600052601160045260246000fd5b6000611a068261168d565b91507fffffffffffffffffffffffffffffffffffffffffffffffffffffffffffffffff8203611a3857611a376119cc565b5b600182019050919050565b7f4e487b7100000000000000000000000000000000000000000000000000000000600052602260045260246000fd5b60006002820490506001821680611a8a57607f821691505b602082108103611a9d57611a9c611a43565b5b50919050565b60008190508160005260206000209050919050565b60006020601f8301049050919050565b600082821b905092915050565b600060088302611b057fffffffffffffffffffffffffffffffffffffffffffffffffffffffffffffffff82611ac8565b611b0f8683611ac8565b95508019841693508086168417925050509392505050565b6000819050919050565b6000611b4c611b47611b428461168d565b611b27565b61168d565b9050919050565b6000819050919050565b611b6683611b31565b611b7a611b7282611b53565b848454611ad5565b825550505050565b600090565b611b8f611b82565b611b9a818484611b5d565b505050565b5b81811015611bbe57611bb3600082611b87565b600181019050611ba0565b5050565b601f821115611c0357611bd481611aa3565b611bdd84611ab8565b81016020851015611bec578190505b611c00611bf885611ab8565b830182611b9f565b50505b505050565b600082821c905092915050565b6000611c2660001984600802611c08565b1980831691505092915050565b6000611c3f8383611c15565b9150826002028217905092915050565b611c5882611740565b67ffffffffffffffff811115611c7157611c70611519565b5b611c7b8254611a72565b611c86828285611bc2565b600060209050601f831160018114611cb95760008415611ca7578287015190505b611cb18582611c33565b865550611d19565b601f198416611cc786611aa3565b60005b82811015611cef57848901518255600182019150602085019450602081019050611cca565b86831015611d0c5784890151611d08601f891682611c15565b8355505b6001600288020188555050505b505050505050565b7f4665652063616e6e6f7420657863656564203130250000000000000000000000600082015250565b6000611d5760158361174b565b9150611d6282611d21565b602082019050919050565b60006020820190508181036000830152611d8681611d4a565b9050919050565b7f4f6e6c792061737369676e656420646f65722063616e20636f6d706c65746500600082015250565b6000611dc3601f8361174b565b9150611dce82611d8d565b602082019050919050565b60006020820190508181036000830152611df281611db6565b9050919050565b7f5461736b20616c726561647920636f6d706c6574656400000000000000000000600082015250565b6000611e2f60168361174b565b9150611e3a82611df9565b602082019050919050565b60006020820190508181036000830152611e5e81611e22565b9050919050565b60006020820190508181036000830152611e7f8184611786565b905092915050565b7f496e76616c69642077616c6c6574206164647265737300000000000000000000600082015250565b6000611ebd60168361174b565b9150611ec882611e87565b602082019050919050565b60006020820190508181036000830152611eec81611eb0565b9050919050565b7f4f6e6c7920706f737465722063616e2072656c65617365207061796d656e7400600082015250565b6000611f29601f8361174b565b9150611f3482611ef3565b602082019050919050565b60006020820190508181036000830152611f5881611f1c565b9050919050565b7f5461736b206e6f7420636f6d706c657465640000000000000000000000000000600082015250565b6000611f9560128361174b565b9150611fa082611f5f565b602082019050919050565b60006020820190508181036000830152611fc481611f88565b9050919050565b7f5061796d656e7420616c72656164792072656c65617365640000000000000000600082015250565b600061200160188361174b565b915061200c82611fcb565b602082019050919050565b6000602082019050818103600083015261203081611ff4565b9050919050565b60006120428261168d565b915061204d8361168d565b925082820261205b8161168d565b91508282048414831517612072576120716119cc565b5b5092915050565b7f4e487b7100000000000000000000000000000000000000000000000000000000600052601260045260246000fd5b60006120b38261168d565b91506120be8361168d565b9250826120ce576120cd612079565b5b828204905092915050565b60006120e48261168d565b91506120ef8361168d565b9250828203905081811115612107576121066119cc565b5b92915050565b600081905092915050565b50565b600061212860008361210d565b915061213382612118565b600082019050919050565b60006121498261211b565b9150819050919050565b7f506c6174666f726d20666565207472616e73666572206661696c656400000000600082015250565b6000612189601c8361174b565b915061219482612153565b602082019050919050565b600060208201905081810360008301526121b88161217c565b9050919050565b7f5061796d656e74207472616e73666572206661696c6564000000000000000000600082015250565b60006121f560178361174b565b9150612200826121bf565b602082019050919050565b60006020820190508181036000830152612224816121e8565b9050919050565b7f5461736b20646f6573206e6f7420657869737400000000000000000000000000600082015250565b600061226160138361174b565b915061226c8261222b565b602082019050919050565b6000602082019050818103600083015261229081612254565b9050919050565b7f5461736b20616c72656164792061737369676e65640000000000000000000000600082015250565b60006122cd60158361174b565b91506122d882612297565b602082019050919050565b600060208201905081810360008301526122fc816122c0565b9050919050565b7f43616e6e6f742061737369676e20746f20796f757273656c6600000000000000600082015250565b600061233960198361174b565b915061234482612303565b602082019050919050565b600060208201905081810360008301526123688161232c565b9050919050565b7f4f776e61626c653a206e6577206f776e657220697320746865207a65726f206160008201527f6464726573730000000000000000000000000000000000000000000000000000602082015250565b60006123cb60268361174b565b91506123d68261236f565b604082019050919050565b600060208201905081810360008301526123fa816123be565b9050919050565b7f4f776e61626c653a2063616c6c6572206973206e6f7420746865206f776e6572600082015250565b600061243760208361174b565b915061244282612401565b602082019050919050565b600060208201905081810360008301526124668161242a565b9050919050565b7f5265656e7472616e637947756172643a207265656e7472616e742063616c6c00600082015250565b60006124a3601f8361174b565b91506124ae8261246d565b602082019050919050565b600060208201905081810360008301526124d281612496565b905091905056fea264697066735822122001dd5ca113d3e23c9ed41329be6664efcb132b764afc6d7e46c45a0249542ee264736f6c63430008140033",
  "linkReferences": {},
  "deployedLinkReferences": {}
}